{
  "address": "0xa3aDa3B95bb2374815A849b29D934101a74a0d75",
  "abi": [
    {
      "inputs": [
        {
          "internalType": "address",
          "name": "exampleExternalContractAddress",
          "type": "address"
        }
      ],
      "stateMutability": "nonpayable",
      "type": "constructor"
    },
    {
      "anonymous": false,
      "inputs": [
        {
          "indexed": true,
          "internalType": "address",
          "name": "staker",
          "type": "address"
        },
        {
          "indexed": false,
          "internalType": "uint256",
          "name": "amount",
          "type": "uint256"
        }
      ],
      "name": "Stake",
      "type": "event"
    },
    {
      "inputs": [
        {
          "internalType": "address",
          "name": "",
          "type": "address"
        }
      ],
      "name": "balances",
      "outputs": [
        {
          "internalType": "uint256",
          "name": "",
          "type": "uint256"
        }
      ],
      "stateMutability": "view",
      "type": "function"
    },
    {
      "inputs": [],
      "name": "completed",
      "outputs": [
        {
          "internalType": "bool",
          "name": "",
          "type": "bool"
        }
      ],
      "stateMutability": "view",
      "type": "function"
    },
    {
      "inputs": [],
      "name": "deadline",
      "outputs": [
        {
          "internalType": "uint256",
          "name": "",
          "type": "uint256"
        }
      ],
      "stateMutability": "view",
      "type": "function"
    },
    {
      "inputs": [],
      "name": "exampleExternalContract",
      "outputs": [
        {
          "internalType": "contract ExampleExternalContract",
          "name": "",
          "type": "address"
        }
      ],
      "stateMutability": "view",
      "type": "function"
    },
    {
      "inputs": [],
      "name": "execute",
      "outputs": [],
      "stateMutability": "nonpayable",
      "type": "function"
    },
    {
      "inputs": [],
      "name": "stake",
      "outputs": [],
      "stateMutability": "payable",
      "type": "function"
    },
    {
      "inputs": [],
      "name": "threshold",
      "outputs": [
        {
          "internalType": "uint256",
          "name": "",
          "type": "uint256"
        }
      ],
      "stateMutability": "view",
      "type": "function"
    },
    {
      "inputs": [],
      "name": "timeLeft",
      "outputs": [
        {
          "internalType": "uint256",
          "name": "",
          "type": "uint256"
        }
      ],
      "stateMutability": "view",
      "type": "function"
    },
    {
      "inputs": [],
      "name": "withdraw",
      "outputs": [],
      "stateMutability": "nonpayable",
      "type": "function"
    },
    {
      "stateMutability": "payable",
      "type": "receive"
    }
  ],
  "transactionHash": "0x4221b6d8989b9621075ff56ae85a36343503c02602bf4af4ab425c489292a66b",
  "args": [
    "0x97CEF9586721f69F73087B5a7b28cFAFff7e5dFc"
  ],
  "numDeployments": 1,
  "solcInputHash": "4fa8356e9484d6baeb900d181bbd2cfc",
  "bytecode": "0x608060405261001042612a30610091565b60025534801561001f57600080fd5b506040516108de3803806108de83398101604081905261003e91610063565b600080546001600160a01b0319166001600160a01b03929092169190911790556100b5565b600060208284031215610074578081fd5b81516001600160a01b038116811461008a578182fd5b9392505050565b600082198211156100b057634e487b7160e01b81526011600452602481fd5b500190565b61081a806100c46000396000f3fe60806040526004361061008a5760003560e01c80633ccfd60b116100595780633ccfd60b1461011157806342cde4e81461012657806361461954146101425780639d9a7fe9146101575780639f75f2271461018157600080fd5b80631300a6d11461009e57806327e235e3146100c657806329dcb0cf146100f35780633a4b66f11461010957600080fd5b36610099576100976101b9565b005b600080fd5b3480156100aa57600080fd5b506100b3610324565b6040519081526020015b60405180910390f35b3480156100d257600080fd5b506100b36100e1366004610651565b60016020526000908152604090205481565b3480156100ff57600080fd5b506100b360025481565b6100976101b9565b34801561011d57600080fd5b50610097610348565b34801561013257600080fd5b506100b3670de0b6b3a764000081565b34801561014e57600080fd5b506100976104d7565b34801561016357600080fd5b506003546101719060ff1681565b60405190151581526020016100bd565b34801561018d57600080fd5b506000546101a1906001600160a01b031681565b6040516001600160a01b0390911681526020016100bd565b60035460ff16156101e55760405162461bcd60e51b81526004016101dc90610710565b60405180910390fd5b60025442106102365760405162461bcd60e51b815260206004820152601860248201527f5374616b696e6720706572696f642068617320656e646564000000000000000060448201526064016101dc565b6000341161027f5760405162461bcd60e51b81526020600482015260166024820152754d7573742073656e642045544820746f207374616b6560501b60448201526064016101dc565b336000908152600160205260408120805434929061029e90849061079f565b909155505060405134815233907febedb8b3c678666e7f36970bc8f57abf6d8fa2e828c0da91ea5b75bf68ed101a9060200160405180910390a26103226040518060400160405280600781526020016629ba30b5b2b21d60c91b815250336040518060400160405280600781526020016630b6b7bab73a1d60c91b815250346105d5565b565b600060025442106103355750600090565b4260025461034391906107b7565b905090565b60035460ff161561036b5760405162461bcd60e51b81526004016101dc90610710565b60025442101561038d5760405162461bcd60e51b81526004016101dc9061075e565b670de0b6b3a764000047106103e45760405162461bcd60e51b815260206004820152601e60248201527f5468726573686f6c64206d65742c2063616e6e6f74207769746864726177000060448201526064016101dc565b336000908152600160205260409020548061043a5760405162461bcd60e51b81526020600482015260166024820152754e6f2062616c616e636520746f20776974686472617760501b60448201526064016101dc565b336000818152600160205260408082208290555190919083908381818185875af1925050503d806000811461048b576040519150601f19603f3d011682016040523d82523d6000602084013e610490565b606091505b50509050806104d35760405162461bcd60e51b815260206004820152600f60248201526e151c985b9cd9995c8819985a5b1959608a1b60448201526064016101dc565b5050565b60035460ff16156104fa5760405162461bcd60e51b81526004016101dc90610710565b60025442101561051c5760405162461bcd60e51b81526004016101dc9061075e565b670de0b6b3a76400004710156105685760405162461bcd60e51b8152602060048201526011602482015270151a1c995cda1bdb19081b9bdd081b595d607a1b60448201526064016101dc565b6003805460ff19166001179055600080546040805163522e117760e01b815290516001600160a01b039092169263522e1177924792600480820193929182900301818588803b1580156105ba57600080fd5b505af11580156105ce573d6000803e3d6000fd5b5050505050565b61061e848484846040516024016105ef94939291906106ca565b60408051601f198184030181529190526020810180516001600160e01b03166348e8889760e11b179052610624565b50505050565b61062d81610630565b50565b60006a636f6e736f6c652e6c6f679050600080835160208501845afa505050565b600060208284031215610662578081fd5b81356001600160a01b0381168114610678578182fd5b9392505050565b60008151808452815b818110156106a457602081850181015186830182015201610688565b818111156106b55782602083870101525b50601f01601f19169290920160200192915050565b6080815260006106dd608083018761067f565b6001600160a01b038616602084015282810360408401526106fe818661067f565b91505082606083015295945050505050565b6020808252602e908201527f4f7065726174696f6e2063616e6e6f7420626520706572666f726d656420616660408201526d3a32b91031b7b6b83632ba34b7b760911b606082015260800190565b60208082526021908201527f446561646c696e6520686173206e6f74206265656e20726561636865642079656040820152601d60fa1b606082015260800190565b600082198211156107b2576107b26107ce565b500190565b6000828210156107c9576107c96107ce565b500390565b634e487b7160e01b600052601160045260246000fdfea2646970667358221220c3f1d988a32518f763aec6a337a7a4ebacaea9d05ca8a29b480d3c3f15b6e4c264736f6c63430008040033",
  "devdoc": {
    "kind": "dev",
    "methods": {},
    "version": 1
  },
  "userdoc": {
    "kind": "user",
    "methods": {},
    "version": 1
  },
  "storageLayout": {
    "storage": [
      {
        "astId": 19,
        "contract": "contracts/Staker.sol:Staker",
        "label": "exampleExternalContract",
        "offset": 0,
        "slot": "0",
        "type": "t_contract(ExampleExternalContract)12"
      },
      {
        "astId": 35,
        "contract": "contracts/Staker.sol:Staker",
        "label": "balances",
        "offset": 0,
        "slot": "1",
        "type": "t_mapping(t_address,t_uint256)"
      },
      {
        "astId": 44,
        "contract": "contracts/Staker.sol:Staker",
        "label": "deadline",
        "offset": 0,
        "slot": "2",
        "type": "t_uint256"
      },
      {
        "astId": 46,
        "contract": "contracts/Staker.sol:Staker",
        "label": "completed",
        "offset": 0,
        "slot": "3",
        "type": "t_bool"
      }
    ],
    "types": {
      "t_address": {
        "encoding": "inplace",
        "label": "address",
        "numberOfBytes": "20"
      },
      "t_bool": {
        "encoding": "inplace",
        "label": "bool",
        "numberOfBytes": "1"
      },
      "t_contract(ExampleExternalContract)12": {
        "encoding": "inplace",
        "label": "contract ExampleExternalContract",
        "numberOfBytes": "20"
      },
      "t_mapping(t_address,t_uint256)": {
        "encoding": "mapping",
        "key": "t_address",
        "label": "mapping(address => uint256)",
        "numberOfBytes": "32",
        "value": "t_uint256"
      },
      "t_uint256": {
        "encoding": "inplace",
        "label": "uint256",
        "numberOfBytes": "32"
      }
    }
  }
}